{
  "contractName": "LibraryAccessControl",
  "abi": [
    {
      "constant": true,
      "inputs": [
        {
          "internalType": "address",
          "name": "",
          "type": "address"
        }
      ],
      "name": "users",
      "outputs": [
        {
          "internalType": "bool",
          "name": "hasReadAccess",
          "type": "bool"
        },
        {
          "internalType": "bool",
          "name": "hasWriteAccess",
          "type": "bool"
        },
        {
          "internalType": "bool",
          "name": "hasModifyAccess",
          "type": "bool"
        }
      ],
      "payable": false,
      "stateMutability": "view",
      "type": "function"
    },
    {
      "constant": false,
      "inputs": [
        {
          "internalType": "address",
          "name": "user",
          "type": "address"
        },
        {
          "internalType": "bool",
          "name": "read",
          "type": "bool"
        },
        {
          "internalType": "bool",
          "name": "write",
          "type": "bool"
        },
        {
          "internalType": "bool",
          "name": "modify",
          "type": "bool"
        }
      ],
      "name": "grantAccess",
      "outputs": [],
      "payable": false,
      "stateMutability": "nonpayable",
      "type": "function"
    },
    {
      "constant": true,
      "inputs": [
        {
          "internalType": "address",
          "name": "user",
          "type": "address"
        }
      ],
      "name": "checkAccess",
      "outputs": [
        {
          "internalType": "bool",
          "name": "",
          "type": "bool"
        },
        {
          "internalType": "bool",
          "name": "",
          "type": "bool"
        },
        {
          "internalType": "bool",
          "name": "",
          "type": "bool"
        }
      ],
      "payable": false,
      "stateMutability": "view",
      "type": "function"
    }
  ],
  "bytecode": "0x608060405234801561001057600080fd5b506103cd806100206000396000f3fe608060405234801561001057600080fd5b50600436106100415760003560e01c80630458d20114610046578063466a0146146100ae578063a87430ba14610120575b600080fd5b6100ac6004803603608081101561005c57600080fd5b81019080803573ffffffffffffffffffffffffffffffffffffffff169060200190929190803515159060200190929190803515159060200190929190803515159060200190929190505050610192565b005b6100f0600480360360208110156100c457600080fd5b81019080803573ffffffffffffffffffffffffffffffffffffffff16906020019092919050505061025a565b60405180841515151581526020018315151515815260200182151515158152602001935050505060405180910390f35b6101626004803603602081101561013657600080fd5b81019080803573ffffffffffffffffffffffffffffffffffffffff169060200190929190505050610320565b60405180841515151581526020018315151515815260200182151515158152602001935050505060405180910390f35b6040518060600160405280841515815260200183151581526020018215158152506000808673ffffffffffffffffffffffffffffffffffffffff1673ffffffffffffffffffffffffffffffffffffffff16815260200190815260200160002060008201518160000160006101000a81548160ff02191690831515021790555060208201518160000160016101000a81548160ff02191690831515021790555060408201518160000160026101000a81548160ff02191690831515021790555090505050505050565b6000806000610267610371565b6000808673ffffffffffffffffffffffffffffffffffffffff1673ffffffffffffffffffffffffffffffffffffffff1681526020019081526020016000206040518060600160405290816000820160009054906101000a900460ff161515151581526020016000820160019054906101000a900460ff161515151581526020016000820160029054906101000a900460ff1615151515815250509050806000015181602001518260400151935093509350509193909250565b60006020528060005260406000206000915090508060000160009054906101000a900460ff16908060000160019054906101000a900460ff16908060000160029054906101000a900460ff16905083565b6040518060600160405280600015158152602001600015158152602001600015158152509056fea265627a7a723158208ef8270a79726effa500a515227bf3e39b22178b0166fd97023ec98715a78a7664736f6c63430005100032",
  "source": "\r\npragma solidity ^0.5.16;\r\ncontract LibraryAccessControl {\r\n    struct User {\r\n        bool hasReadAccess;\r\n        bool hasWriteAccess;\r\n        bool hasModifyAccess;\r\n    }\r\n\r\n    mapping(address => User) public users; /*  associates each user's Ethereum address with a User struct that contains boolean flags for read, write, and modify access*/\r\n\r\n/*Allows the contract owner to grant or modify access rights for a specific use*/\r\n   \r\n    function grantAccess(address user, bool read, bool write, bool modify) public {\r\n        users[user] = User({\r\n            hasReadAccess: read,\r\n            hasWriteAccess: write,\r\n            hasModifyAccess: modify\r\n        });\r\n    }\r\n/*whether the user has read, write, and modify access*/\r\n    function checkAccess(address user) view public returns (bool, bool, bool) {\r\n        User memory currentUser = users[user];\r\n        return (currentUser.hasReadAccess, currentUser.hasWriteAccess, currentUser.hasModifyAccess);\r\n    }\r\n}\r\n",
  "sourcePath": "C:\\Users\\Rania\\OneDrive\\Desktop\\projetliab\\LibraryAccessControl\\contracts\\LibraryAccessControl.sol",
  "compiler": {
    "name": "solc",
    "version": "0.5.16+commit.9c3226ce.Emscripten.clang"
  },
  "schemaVersion": "3.4.16",
  "updatedAt": "2023-12-13T18:57:27.840Z",
  "networkType": "ethereum",
  "devdoc": {
    "methods": {}
  },
  "userdoc": {
    "methods": {}
  }
}